{
  "contractName": "FrozenOJ",
  "abi": [
    {
      "constant": false,
      "inputs": [
        {
          "name": "myid",
          "type": "bytes32"
        },
        {
          "name": "result",
          "type": "string"
        }
      ],
      "name": "__callback",
      "outputs": [],
      "payable": false,
      "stateMutability": "nonpayable",
      "type": "function"
    },
    {
      "constant": false,
      "inputs": [
        {
          "name": "myid",
          "type": "bytes32"
        },
        {
          "name": "result",
          "type": "string"
        },
        {
          "name": "proof",
          "type": "bytes"
        }
      ],
      "name": "__callback",
      "outputs": [],
      "payable": false,
      "stateMutability": "nonpayable",
      "type": "function"
    },
    {
      "constant": true,
      "inputs": [],
      "name": "FrozenOJPPI",
      "outputs": [
        {
          "name": "",
          "type": "uint256"
        }
      ],
      "payable": false,
      "stateMutability": "view",
      "type": "function"
    },
    {
      "constant": false,
      "inputs": [],
      "name": "FrozenOJPrice",
      "outputs": [],
      "payable": false,
      "stateMutability": "nonpayable",
      "type": "function"
    },
    {
      "constant": false,
      "inputs": [],
      "name": "update",
      "outputs": [],
      "payable": true,
      "stateMutability": "payable",
      "type": "function"
    },
    {
      "anonymous": false,
      "inputs": [
        {
          "indexed": false,
          "name": "description",
          "type": "string"
        }
      ],
      "name": "newOraclizeQuery",
      "type": "event"
    },
    {
      "anonymous": false,
      "inputs": [
        {
          "indexed": false,
          "name": "price",
          "type": "string"
        }
      ],
      "name": "newFrozenOJPrice",
      "type": "event"
    }
  ],
  "bytecode": "0x6060604052341561000f57600080fd5b61155e8061001e6000396000f30060606040526004361061006d576000357c0100000000000000000000000000000000000000000000000000000000900463ffffffff16806327dc297e1461007257806338bbfa50146100dc5780635b79ae8a146101895780638fdeb8ac146101b2578063a2e62045146101c7575b600080fd5b341561007d57600080fd5b6100da60048080356000191690602001909190803590602001908201803590602001908080601f016020809104026020016040519081016040528093929190818152602001838380828437820191505050505050919050506101d1565b005b34156100e757600080fd5b61018760048080356000191690602001909190803590602001908201803590602001908080601f0160208091040260200160405190810160405280939291908181526020018383808284378201915050505050509190803590602001908201803590602001908080601f016020809104026020016040519081016040528093929190818152602001838380828437820191505050505050919050506102c1565b005b341561019457600080fd5b61019c6102c6565b6040518082815260200191505060405180910390f35b34156101bd57600080fd5b6101c56102cc565b005b6101cf6102d6565b005b6101d961044e565b73ffffffffffffffffffffffffffffffffffffffff163373ffffffffffffffffffffffffffffffffffffffff1614151561021257600080fd5b7f61028fd5daeec685cad0f0039e9d1a3df21249db723846b713fa1a7d84810c97816040518080602001828103825283818151815260200191508051906020019080838360005b83811015610274578082015181840152602081019050610259565b50505050905090810190601f1680156102a15780820380516001836020036101000a031916815260200191505b509250505060405180910390a16102b781610764565b6005819055505050565b505050565b60055481565b6102d46102d6565b565b7f46cb989ef9cef13e930e3b7f286225a086e716a90d63e0b7da85d310a9db0c9a6040518080602001828103825260358152602001807f4f7261636c697a65207175657279207761732073656e742c207374616e64696e81526020017f6720627920666f722074686520616e737765722e2e000000000000000000000081525060400191505060405180910390a161044b6040805190810160405280600381526020017f55524c000000000000000000000000000000000000000000000000000000000081525060a060405190810160405280607a81526020017f6a736f6e2868747470733a2f2f7777772e7175616e646c2e636f6d2f6170692f81526020017f76332f64617461736574732f465245442f57505530323432303330312e6a736f81526020017f6e3f6c696d69743d31266170695f6b65793d6f597769414d5369454652537a4181526020017f48564b6f366a292e646174617365742e646174615b305d5b315d000000000000815250610778565b50565b6000806000809054906101000a900473ffffffffffffffffffffffffffffffffffffffff1673ffffffffffffffffffffffffffffffffffffffff1614806104be575060006104bc6000809054906101000a900473ffffffffffffffffffffffffffffffffffffffff16610cba565b145b156104cf576104cd6000610cc5565b505b6000809054906101000a900473ffffffffffffffffffffffffffffffffffffffff1673ffffffffffffffffffffffffffffffffffffffff166338cc48316000604051602001526040518163ffffffff167c0100000000000000000000000000000000000000000000000000000000028152600401602060405180830381600087803b151561055c57600080fd5b6102c65a03f1151561056d57600080fd5b5050506040518051905073ffffffffffffffffffffffffffffffffffffffff16600160009054906101000a900473ffffffffffffffffffffffffffffffffffffffff1673ffffffffffffffffffffffffffffffffffffffff161415156106b6576000809054906101000a900473ffffffffffffffffffffffffffffffffffffffff1673ffffffffffffffffffffffffffffffffffffffff166338cc48316000604051602001526040518163ffffffff167c0100000000000000000000000000000000000000000000000000000000028152600401602060405180830381600087803b151561065a57600080fd5b6102c65a03f1151561066b57600080fd5b50505060405180519050600160006101000a81548173ffffffffffffffffffffffffffffffffffffffff021916908373ffffffffffffffffffffffffffffffffffffffff1602179055505b600160009054906101000a900473ffffffffffffffffffffffffffffffffffffffff1673ffffffffffffffffffffffffffffffffffffffff1663c281d19e6000604051602001526040518163ffffffff167c0100000000000000000000000000000000000000000000000000000000028152600401602060405180830381600087803b151561074457600080fd5b6102c65a03f1151561075557600080fd5b50505060405180519050905090565b6000610771826000610cd6565b9050919050565b60008060008060009054906101000a900473ffffffffffffffffffffffffffffffffffffffff1673ffffffffffffffffffffffffffffffffffffffff1614806107ea575060006107e86000809054906101000a900473ffffffffffffffffffffffffffffffffffffffff16610cba565b145b156107fb576107f96000610cc5565b505b6000809054906101000a900473ffffffffffffffffffffffffffffffffffffffff1673ffffffffffffffffffffffffffffffffffffffff166338cc48316000604051602001526040518163ffffffff167c0100000000000000000000000000000000000000000000000000000000028152600401602060405180830381600087803b151561088857600080fd5b6102c65a03f1151561089957600080fd5b5050506040518051905073ffffffffffffffffffffffffffffffffffffffff16600160009054906101000a900473ffffffffffffffffffffffffffffffffffffffff1673ffffffffffffffffffffffffffffffffffffffff161415156109e2576000809054906101000a900473ffffffffffffffffffffffffffffffffffffffff1673ffffffffffffffffffffffffffffffffffffffff166338cc48316000604051602001526040518163ffffffff167c0100000000000000000000000000000000000000000000000000000000028152600401602060405180830381600087803b151561098657600080fd5b6102c65a03f1151561099757600080fd5b50505060405180519050600160006101000a81548173ffffffffffffffffffffffffffffffffffffffff021916908373ffffffffffffffffffffffffffffffffffffffff1602179055505b600160009054906101000a900473ffffffffffffffffffffffffffffffffffffffff1673ffffffffffffffffffffffffffffffffffffffff1663524f3889856000604051602001526040518263ffffffff167c01000000000000000000000000000000000000000000000000000000000281526004018080602001828103825283818151815260200191508051906020019080838360005b83811015610a95578082015181840152602081019050610a7a565b50505050905090810190601f168015610ac25780820380516001836020036101000a031916815260200191505b5092505050602060405180830381600087803b1515610ae057600080fd5b6102c65a03f11515610af157600080fd5b50505060405180519050905062030d403a02670de0b6b3a764000001811115610b205760006001029150610cb3565b600160009054906101000a900473ffffffffffffffffffffffffffffffffffffffff1673ffffffffffffffffffffffffffffffffffffffff1663adf59f9982600087876000604051602001526040518563ffffffff167c0100000000000000000000000000000000000000000000000000000000028152600401808481526020018060200180602001838103835285818151815260200191508051906020019080838360005b83811015610be1578082015181840152602081019050610bc6565b50505050905090810190601f168015610c0e5780820380516001836020036101000a031916815260200191505b50838103825284818151815260200191508051906020019080838360005b83811015610c47578082015181840152602081019050610c2c565b50505050905090810190601f168015610c745780820380516001836020036101000a031916815260200191505b50955050505050506020604051808303818588803b1515610c9457600080fd5b6125ee5a03f11515610ca557600080fd5b505050506040518051905091505b5092915050565b6000813b9050919050565b6000610ccf610fd0565b9050919050565b6000610ce0611479565b60008060008693506000925060009150600090505b8351811015610fb15760307f0100000000000000000000000000000000000000000000000000000000000000028482815181101515610d3057fe5b9060200101517f010000000000000000000000000000000000000000000000000000000000000090047f0100000000000000000000000000000000000000000000000000000000000000027effffffffffffffffffffffffffffffffffffffffffffffffffffffffffffff191610158015610e48575060397f0100000000000000000000000000000000000000000000000000000000000000028482815181101515610dd857fe5b9060200101517f010000000000000000000000000000000000000000000000000000000000000090047f0100000000000000000000000000000000000000000000000000000000000000027effffffffffffffffffffffffffffffffffffffffffffffffffffffffffffff191611155b15610ef9578115610e6b576000861415610e6157610fb1565b8580600190039650505b600a8302925060308482815181101515610e8157fe5b9060200101517f010000000000000000000000000000000000000000000000000000000000000090047f0100000000000000000000000000000000000000000000000000000000000000027f010000000000000000000000000000000000000000000000000000000000000090040383019250610fa4565b602e7f0100000000000000000000000000000000000000000000000000000000000000028482815181101515610f2b57fe5b9060200101517f010000000000000000000000000000000000000000000000000000000000000090047f0100000000000000000000000000000000000000000000000000000000000000027effffffffffffffffffffffffffffffffffffffffffffffffffffffffffffff19161415610fa357600191505b5b8080600101915050610cf5565b6000861115610fc35785600a0a830292505b8294505050505092915050565b600080610ff0731d3b2638a7cc9f2cb3d298a3da7a90b67e5506ed610cba565b111561109157731d3b2638a7cc9f2cb3d298a3da7a90b67e5506ed6000806101000a81548173ffffffffffffffffffffffffffffffffffffffff021916908373ffffffffffffffffffffffffffffffffffffffff1602179055506110886040805190810160405280600b81526020017f6574685f6d61696e6e657400000000000000000000000000000000000000000081525061145f565b6001905061145c565b60006110b073c03a2615d5efaf5f49f60b7bb6583eaec212fdf1610cba565b11156111515773c03a2615d5efaf5f49f60b7bb6583eaec212fdf16000806101000a81548173ffffffffffffffffffffffffffffffffffffffff021916908373ffffffffffffffffffffffffffffffffffffffff1602179055506111486040805190810160405280600c81526020017f6574685f726f707374656e33000000000000000000000000000000000000000081525061145f565b6001905061145c565b600061117073b7a07bcf2ba2f2703b24c0691b5278999c59ac7e610cba565b11156112115773b7a07bcf2ba2f2703b24c0691b5278999c59ac7e6000806101000a81548173ffffffffffffffffffffffffffffffffffffffff021916908373ffffffffffffffffffffffffffffffffffffffff1602179055506112086040805190810160405280600981526020017f6574685f6b6f76616e000000000000000000000000000000000000000000000081525061145f565b6001905061145c565b600061123073146500cfd35b22e4a392fe0adc06de1a1368ed48610cba565b11156112d15773146500cfd35b22e4a392fe0adc06de1a1368ed486000806101000a81548173ffffffffffffffffffffffffffffffffffffffff021916908373ffffffffffffffffffffffffffffffffffffffff1602179055506112c86040805190810160405280600b81526020017f6574685f72696e6b65627900000000000000000000000000000000000000000081525061145f565b6001905061145c565b60006112f0736f485c8bf6fc43ea212e93bbf8ce046c7f1cb475610cba565b111561135357736f485c8bf6fc43ea212e93bbf8ce046c7f1cb4756000806101000a81548173ffffffffffffffffffffffffffffffffffffffff021916908373ffffffffffffffffffffffffffffffffffffffff1602179055506001905061145c565b60006113727320e12a1f859b3feae5fb2a0a32c18f5a65555bbf610cba565b11156113d5577320e12a1f859b3feae5fb2a0a32c18f5a65555bbf6000806101000a81548173ffffffffffffffffffffffffffffffffffffffff021916908373ffffffffffffffffffffffffffffffffffffffff1602179055506001905061145c565b60006113f47351efaf4c8b3c9afbd5ab9f4bbc82784ab6ef8faa610cba565b1115611457577351efaf4c8b3c9afbd5ab9f4bbc82784ab6ef8faa6000806101000a81548173ffffffffffffffffffffffffffffffffffffffff021916908373ffffffffffffffffffffffffffffffffffffffff1602179055506001905061145c565b600090505b90565b806002908051906020019061147592919061148d565b5050565b602060405190810160405280600081525090565b828054600181600116156101000203166002900490600052602060002090601f016020900481019282601f106114ce57805160ff19168380011785556114fc565b828001600101855582156114fc579182015b828111156114fb5782518255916020019190600101906114e0565b5b509050611509919061150d565b5090565b61152f91905b8082111561152b576000816000905550600101611513565b5090565b905600a165627a7a723058205d7569e7f1ff27cd99f6d83dd0df1fcb15bc2c05a4677fd49b88ce1c32d675160029",
  "source": "/*\r\n\r\n    Frozen Orange Juice PPI\r\n   This contract keeps in storage a reference\r\n   to the frozen orange juice purchase price index. \r\n\r\n*/\r\n\r\n\r\n\r\n\r\n\r\npragma solidity ^0.4.0;\r\n\r\nimport \"./oraclizeAPI_0.5.sol\";\r\n\r\n\r\n\r\ncontract FrozenOJ is usingOraclize {\r\n\r\n    \r\n\r\n    uint public FrozenOJPPI;\r\n\r\n\r\n\r\n    event newOraclizeQuery(string description);\r\n\r\n    event newFrozenOJPrice(string price);\r\n\r\n\r\n\r\n    function FrozenOJPrice() {\r\n\r\n        update(); // first check at contract creation\r\n\r\n    }\r\n\r\n\r\n\r\n    function __callback(bytes32 myid, string result) {\r\n\r\n        if (msg.sender != oraclize_cbAddress()) throw;\r\n\r\n        newFrozenOJPrice(result);\r\n\r\n        FrozenOJPPI = parseInt(result); // let's save it as $ cents\r\n\r\n    }\r\n\r\n    \r\n\r\n    function update() payable {\r\n\r\n        newOraclizeQuery(\"Oraclize query was sent, standing by for the answer..\");\r\n\r\n        oraclize_query(\"URL\", \"json(https://www.quandl.com/api/v3/datasets/FRED/WPU02420301.json?limit=1&api_key=oYwiAMSiEFRSzAHVKo6j).dataset.data[0][1]\");\r\n\r\n    }\r\n\r\n    \r\n\r\n}\r\n\r\n",
  "sourcePath": "C:\\Users\\kscar\\Ethereum Development\\OraclizeExample\\contracts\\FrozenOJ.sol",
  "compiler": {
    "name": "solc",
    "version": "0.4.18+commit.9cf6e910.Emscripten.clang"
  },
  "schemaVersion": "1.0.1",
  "updatedAt": "2018-01-26T22:06:14.805Z"
}